{
  "_format": "hh3-artifact-1",
  "contractName": "HoverMarkets",
  "sourceName": "contracts/HoverMarkets.sol",
  "abi": [
    {
      "anonymous": false,
      "inputs": [
        {
          "indexed": true,
          "internalType": "uint256",
          "name": "marketId",
          "type": "uint256"
        },
        {
          "indexed": true,
          "internalType": "address",
          "name": "better",
          "type": "address"
        },
        {
          "indexed": false,
          "internalType": "bool",
          "name": "isYes",
          "type": "bool"
        },
        {
          "indexed": false,
          "internalType": "uint256",
          "name": "amount",
          "type": "uint256"
        }
      ],
      "name": "BetPlaced",
      "type": "event"
    },
    {
      "anonymous": false,
      "inputs": [
        {
          "indexed": true,
          "internalType": "uint256",
          "name": "marketId",
          "type": "uint256"
        },
        {
          "indexed": true,
          "internalType": "address",
          "name": "creator",
          "type": "address"
        },
        {
          "indexed": false,
          "internalType": "string",
          "name": "question",
          "type": "string"
        },
        {
          "indexed": false,
          "internalType": "uint256",
          "name": "deadline",
          "type": "uint256"
        }
      ],
      "name": "MarketCreated",
      "type": "event"
    },
    {
      "anonymous": false,
      "inputs": [
        {
          "indexed": true,
          "internalType": "uint256",
          "name": "marketId",
          "type": "uint256"
        },
        {
          "indexed": false,
          "internalType": "bool",
          "name": "finalOutcome",
          "type": "bool"
        }
      ],
      "name": "MarketResolved",
      "type": "event"
    },
    {
      "anonymous": false,
      "inputs": [
        {
          "indexed": true,
          "internalType": "uint256",
          "name": "marketId",
          "type": "uint256"
        },
        {
          "indexed": true,
          "internalType": "address",
          "name": "winner",
          "type": "address"
        },
        {
          "indexed": false,
          "internalType": "uint256",
          "name": "amount",
          "type": "uint256"
        }
      ],
      "name": "WinningsClaimed",
      "type": "event"
    },
    {
      "inputs": [
        {
          "internalType": "uint256",
          "name": "_marketId",
          "type": "uint256"
        }
      ],
      "name": "claimWinnings",
      "outputs": [],
      "stateMutability": "nonpayable",
      "type": "function"
    },
    {
      "inputs": [
        {
          "internalType": "string",
          "name": "_question",
          "type": "string"
        },
        {
          "internalType": "uint256",
          "name": "_durationInSeconds",
          "type": "uint256"
        }
      ],
      "name": "createMarket",
      "outputs": [
        {
          "internalType": "uint256",
          "name": "",
          "type": "uint256"
        }
      ],
      "stateMutability": "nonpayable",
      "type": "function"
    },
    {
      "inputs": [
        {
          "internalType": "uint256",
          "name": "",
          "type": "uint256"
        },
        {
          "internalType": "address",
          "name": "",
          "type": "address"
        }
      ],
      "name": "hasClaimed",
      "outputs": [
        {
          "internalType": "bool",
          "name": "",
          "type": "bool"
        }
      ],
      "stateMutability": "view",
      "type": "function"
    },
    {
      "inputs": [],
      "name": "marketCount",
      "outputs": [
        {
          "internalType": "uint256",
          "name": "",
          "type": "uint256"
        }
      ],
      "stateMutability": "view",
      "type": "function"
    },
    {
      "inputs": [
        {
          "internalType": "uint256",
          "name": "",
          "type": "uint256"
        }
      ],
      "name": "markets",
      "outputs": [
        {
          "internalType": "address",
          "name": "creator",
          "type": "address"
        },
        {
          "internalType": "string",
          "name": "question",
          "type": "string"
        },
        {
          "internalType": "uint256",
          "name": "deadline",
          "type": "uint256"
        },
        {
          "internalType": "bool",
          "name": "resolved",
          "type": "bool"
        },
        {
          "internalType": "enum HoverMarkets.Outcome",
          "name": "outcome",
          "type": "uint8"
        },
        {
          "internalType": "uint256",
          "name": "totalYesPool",
          "type": "uint256"
        },
        {
          "internalType": "uint256",
          "name": "totalNoPool",
          "type": "uint256"
        }
      ],
      "stateMutability": "view",
      "type": "function"
    },
    {
      "inputs": [
        {
          "internalType": "uint256",
          "name": "",
          "type": "uint256"
        },
        {
          "internalType": "address",
          "name": "",
          "type": "address"
        }
      ],
      "name": "noBets",
      "outputs": [
        {
          "internalType": "uint256",
          "name": "",
          "type": "uint256"
        }
      ],
      "stateMutability": "view",
      "type": "function"
    },
    {
      "inputs": [
        {
          "internalType": "uint256",
          "name": "_marketId",
          "type": "uint256"
        },
        {
          "internalType": "bool",
          "name": "_isYes",
          "type": "bool"
        }
      ],
      "name": "placeBet",
      "outputs": [],
      "stateMutability": "payable",
      "type": "function"
    },
    {
      "inputs": [
        {
          "internalType": "uint256",
          "name": "_marketId",
          "type": "uint256"
        },
        {
          "internalType": "bool",
          "name": "_finalOutcome",
          "type": "bool"
        }
      ],
      "name": "resolveMarket",
      "outputs": [],
      "stateMutability": "nonpayable",
      "type": "function"
    },
    {
      "inputs": [
        {
          "internalType": "uint256",
          "name": "",
          "type": "uint256"
        },
        {
          "internalType": "address",
          "name": "",
          "type": "address"
        }
      ],
      "name": "yesBets",
      "outputs": [
        {
          "internalType": "uint256",
          "name": "",
          "type": "uint256"
        }
      ],
      "stateMutability": "view",
      "type": "function"
    }
  ],
  "bytecode": "0x608060405234801561000f575f80fd5b50611e408061001d5f395ff3fe608060405260043610610085575f3560e01c8063873f6f9e11610058578063873f6f9e14610151578063883c84c11461018d5780639ed9c74d146101c9578063b1283e77146101e5578063ec9790821461022757610085565b8063155e4b8214610089578063354c6199146100c557806357bde44614610101578063677bd9ff14610129575b5f80fd5b348015610094575f80fd5b506100af60048036038101906100aa9190610fec565b610251565b6040516100bc9190611039565b60405180910390f35b3480156100d0575f80fd5b506100eb60048036038101906100e69190610fec565b610271565b6040516100f89190611039565b60405180910390f35b34801561010c575f80fd5b5061012760048036038101906101229190611087565b610291565b005b348015610134575f80fd5b5061014f600480360381019061014a91906110c5565b6104f0565b005b34801561015c575f80fd5b5061017760048036038101906101729190610fec565b61094b565b60405161018491906110ff565b60405180910390f35b348015610198575f80fd5b506101b360048036038101906101ae9190611254565b610975565b6040516101c09190611039565b60405180910390f35b6101e360048036038101906101de9190611087565b610b76565b005b3480156101f0575f80fd5b5061020b600480360381019061020691906110c5565b610e4d565b60405161021e97969594939291906113aa565b60405180910390f35b348015610232575f80fd5b5061023b610f49565b6040516102489190611039565b60405180910390f35b6003602052815f5260405f20602052805f5260405f205f91509150505481565b6002602052815f5260405f20602052805f5260405f205f91509150505481565b5f60015f8481526020019081526020015f2090505f73ffffffffffffffffffffffffffffffffffffffff16815f015f9054906101000a900473ffffffffffffffffffffffffffffffffffffffff1673ffffffffffffffffffffffffffffffffffffffff1603610335576040517f08c379a000000000000000000000000000000000000000000000000000000000815260040161032c90611468565b60405180910390fd5b805f015f9054906101000a900473ffffffffffffffffffffffffffffffffffffffff1673ffffffffffffffffffffffffffffffffffffffff163373ffffffffffffffffffffffffffffffffffffffff16146103c5576040517f08c379a00000000000000000000000000000000000000000000000000000000081526004016103bc906114d0565b60405180910390fd5b806002015442101561040c576040517f08c379a000000000000000000000000000000000000000000000000000000000815260040161040390611538565b60405180910390fd5b806003015f9054906101000a900460ff161561045d576040517f08c379a0000000000000000000000000000000000000000000000000000000008152600401610454906115a0565b60405180910390fd5b6001816003015f6101000a81548160ff02191690831515021790555081610485576002610488565b60015b8160030160016101000a81548160ff021916908360028111156104ae576104ad611337565b5b0217905550827f4927fe38919783250023d27e65a3e56b6b5c3e49364e51674a41ef08d62460d9836040516104e391906110ff565b60405180910390a2505050565b5f60015f8381526020019081526020015f209050806003015f9054906101000a900460ff16610554576040517f08c379a000000000000000000000000000000000000000000000000000000000815260040161054b90611608565b60405180910390fd5b60045f8381526020019081526020015f205f3373ffffffffffffffffffffffffffffffffffffffff1673ffffffffffffffffffffffffffffffffffffffff1681526020019081526020015f205f9054906101000a900460ff16156105ed576040517f08c379a00000000000000000000000000000000000000000000000000000000081526004016105e490611670565b60405180910390fd5b5f805f6001600281111561060457610603611337565b5b8460030160019054906101000a900460ff16600281111561062857610627611337565b5b0361068f5760025f8681526020019081526020015f205f3373ffffffffffffffffffffffffffffffffffffffff1673ffffffffffffffffffffffffffffffffffffffff1681526020019081526020015f205492508360040154915083600501549050610769565b6002808111156106a2576106a1611337565b5b8460030160019054906101000a900460ff1660028111156106c6576106c5611337565b5b0361072d5760035f8681526020019081526020015f205f3373ffffffffffffffffffffffffffffffffffffffff1673ffffffffffffffffffffffffffffffffffffffff1681526020019081526020015f205492508360050154915083600401549050610768565b6040517f08c379a000000000000000000000000000000000000000000000000000000000815260040161075f906116d8565b60405180910390fd5b5b5f83116107ab576040517f08c379a00000000000000000000000000000000000000000000000000000000081526004016107a290611740565b60405180910390fd5b600160045f8781526020019081526020015f205f3373ffffffffffffffffffffffffffffffffffffffff1673ffffffffffffffffffffffffffffffffffffffff1681526020019081526020015f205f6101000a81548160ff0219169083151502179055505f8390505f8211801561082157505f83115b1561084b57828285610833919061178b565b61083d91906117f9565b816108489190611829565b90505b5f3373ffffffffffffffffffffffffffffffffffffffff168260405161087090611889565b5f6040518083038185875af1925050503d805f81146108aa576040519150601f19603f3d011682016040523d82523d5f602084013e6108af565b606091505b50509050806108f3576040517f08c379a00000000000000000000000000000000000000000000000000000000081526004016108ea906118e7565b60405180910390fd5b3373ffffffffffffffffffffffffffffffffffffffff16877f5380cf6fe903b40c6d5a9e0dfbca2f3a423f0a21520b4d5947ed5169bdba946d8460405161093a9190611039565b60405180910390a350505050505050565b6004602052815f5260405f20602052805f5260405f205f915091509054906101000a900460ff1681565b5f8082116109b8576040517f08c379a00000000000000000000000000000000000000000000000000000000081526004016109af9061194f565b60405180910390fd5b5f808154809291906109c99061196d565b91905055505f805490505f83426109e09190611829565b90506040518060e001604052803373ffffffffffffffffffffffffffffffffffffffff1681526020018681526020018281526020015f151581526020015f6002811115610a3057610a2f611337565b5b81526020015f81526020015f81525060015f8481526020019081526020015f205f820151815f015f6101000a81548173ffffffffffffffffffffffffffffffffffffffff021916908373ffffffffffffffffffffffffffffffffffffffff1602179055506020820151816001019081610aa99190611bae565b50604082015181600201556060820151816003015f6101000a81548160ff02191690831515021790555060808201518160030160016101000a81548160ff02191690836002811115610afe57610afd611337565b5b021790555060a0820151816004015560c082015181600501559050503373ffffffffffffffffffffffffffffffffffffffff16827f03e783e31593f59fda73a59d05e2525d610a533995cce4d4750186c3b6bf80bb8784604051610b63929190611c7d565b60405180910390a3819250505092915050565b5f3411610bb8576040517f08c379a0000000000000000000000000000000000000000000000000000000008152600401610baf90611cf5565b60405180910390fd5b5f60015f8481526020019081526020015f2090505f73ffffffffffffffffffffffffffffffffffffffff16815f015f9054906101000a900473ffffffffffffffffffffffffffffffffffffffff1673ffffffffffffffffffffffffffffffffffffffff1603610c5c576040517f08c379a0000000000000000000000000000000000000000000000000000000008152600401610c5390611468565b60405180910390fd5b80600201544210610ca2576040517f08c379a0000000000000000000000000000000000000000000000000000000008152600401610c9990611d5d565b60405180910390fd5b806003015f9054906101000a900460ff1615610cf3576040517f08c379a0000000000000000000000000000000000000000000000000000000008152600401610cea90611dc5565b60405180910390fd5b8115610d7a5734816004015f828254610d0c9190611829565b925050819055503460025f8581526020019081526020015f205f3373ffffffffffffffffffffffffffffffffffffffff1673ffffffffffffffffffffffffffffffffffffffff1681526020019081526020015f205f828254610d6e9190611829565b92505081905550610df7565b34816005015f828254610d8d9190611829565b925050819055503460035f8581526020019081526020015f205f3373ffffffffffffffffffffffffffffffffffffffff1673ffffffffffffffffffffffffffffffffffffffff1681526020019081526020015f205f828254610def9190611829565b925050819055505b3373ffffffffffffffffffffffffffffffffffffffff16837f4af71b021e799c62c158bd54636ca8da2fa26115a21a2dc6efe486ec104fd15f8434604051610e40929190611de3565b60405180910390a3505050565b6001602052805f5260405f205f91509050805f015f9054906101000a900473ffffffffffffffffffffffffffffffffffffffff1690806001018054610e91906119e1565b80601f0160208091040260200160405190810160405280929190818152602001828054610ebd906119e1565b8015610f085780601f10610edf57610100808354040283529160200191610f08565b820191905f5260205f20905b815481529060010190602001808311610eeb57829003601f168201915b505050505090806002015490806003015f9054906101000a900460ff16908060030160019054906101000a900460ff16908060040154908060050154905087565b5f5481565b5f604051905090565b5f80fd5b5f80fd5b5f819050919050565b610f7181610f5f565b8114610f7b575f80fd5b50565b5f81359050610f8c81610f68565b92915050565b5f73ffffffffffffffffffffffffffffffffffffffff82169050919050565b5f610fbb82610f92565b9050919050565b610fcb81610fb1565b8114610fd5575f80fd5b50565b5f81359050610fe681610fc2565b92915050565b5f806040838503121561100257611001610f57565b5b5f61100f85828601610f7e565b925050602061102085828601610fd8565b9150509250929050565b61103381610f5f565b82525050565b5f60208201905061104c5f83018461102a565b92915050565b5f8115159050919050565b61106681611052565b8114611070575f80fd5b50565b5f813590506110818161105d565b92915050565b5f806040838503121561109d5761109c610f57565b5b5f6110aa85828601610f7e565b92505060206110bb85828601611073565b9150509250929050565b5f602082840312156110da576110d9610f57565b5b5f6110e784828501610f7e565b91505092915050565b6110f981611052565b82525050565b5f6020820190506111125f8301846110f0565b92915050565b5f80fd5b5f80fd5b5f601f19601f8301169050919050565b7f4e487b71000000000000000000000000000000000000000000000000000000005f52604160045260245ffd5b61116682611120565b810181811067ffffffffffffffff8211171561118557611184611130565b5b80604052505050565b5f611197610f4e565b90506111a3828261115d565b919050565b5f67ffffffffffffffff8211156111c2576111c1611130565b5b6111cb82611120565b9050602081019050919050565b828183375f83830152505050565b5f6111f86111f3846111a8565b61118e565b9050828152602081018484840111156112145761121361111c565b5b61121f8482856111d8565b509392505050565b5f82601f83011261123b5761123a611118565b5b813561124b8482602086016111e6565b91505092915050565b5f806040838503121561126a57611269610f57565b5b5f83013567ffffffffffffffff81111561128757611286610f5b565b5b61129385828601611227565b92505060206112a485828601610f7e565b9150509250929050565b6112b781610fb1565b82525050565b5f81519050919050565b5f82825260208201905092915050565b5f5b838110156112f45780820151818401526020810190506112d9565b5f8484015250505050565b5f611309826112bd565b61131381856112c7565b93506113238185602086016112d7565b61132c81611120565b840191505092915050565b7f4e487b71000000000000000000000000000000000000000000000000000000005f52602160045260245ffd5b6003811061137557611374611337565b5b50565b5f81905061138582611364565b919050565b5f61139482611378565b9050919050565b6113a48161138a565b82525050565b5f60e0820190506113bd5f83018a6112ae565b81810360208301526113cf81896112ff565b90506113de604083018861102a565b6113eb60608301876110f0565b6113f8608083018661139b565b61140560a083018561102a565b61141260c083018461102a565b98975050505050505050565b7f4d61726b657420646f6573206e6f7420657869737400000000000000000000005f82015250565b5f6114526015836112c7565b915061145d8261141e565b602082019050919050565b5f6020820190508181035f83015261147f81611446565b9050919050565b7f4f6e6c792063726561746f722063616e207265736f6c766500000000000000005f82015250565b5f6114ba6018836112c7565b91506114c582611486565b602082019050919050565b5f6020820190508181035f8301526114e7816114ae565b9050919050565b7f446561646c696e65206e6f7420726561636865642079657400000000000000005f82015250565b5f6115226018836112c7565b915061152d826114ee565b602082019050919050565b5f6020820190508181035f83015261154f81611516565b9050919050565b7f416c7265616479207265736f6c766564000000000000000000000000000000005f82015250565b5f61158a6010836112c7565b915061159582611556565b602082019050919050565b5f6020820190508181035f8301526115b78161157e565b9050919050565b7f4d61726b6574206e6f74207265736f6c766564207965740000000000000000005f82015250565b5f6115f26017836112c7565b91506115fd826115be565b602082019050919050565b5f6020820190508181035f83015261161f816115e6565b9050919050565b7f416c726561647920636c61696d656400000000000000000000000000000000005f82015250565b5f61165a600f836112c7565b915061166582611626565b602082019050919050565b5f6020820190508181035f8301526116878161164e565b9050919050565b7f496e76616c6964206f7574636f6d6500000000000000000000000000000000005f82015250565b5f6116c2600f836112c7565b91506116cd8261168e565b602082019050919050565b5f6020820190508181035f8301526116ef816116b6565b9050919050565b7f4e6f2077696e6e696e672062657420666f756e640000000000000000000000005f82015250565b5f61172a6014836112c7565b9150611735826116f6565b602082019050919050565b5f6020820190508181035f8301526117578161171e565b9050919050565b7f4e487b71000000000000000000000000000000000000000000000000000000005f52601160045260245ffd5b5f61179582610f5f565b91506117a083610f5f565b92508282026117ae81610f5f565b915082820484148315176117c5576117c461175e565b5b5092915050565b7f4e487b71000000000000000000000000000000000000000000000000000000005f52601260045260245ffd5b5f61180382610f5f565b915061180e83610f5f565b92508261181e5761181d6117cc565b5b828204905092915050565b5f61183382610f5f565b915061183e83610f5f565b92508282019050808211156118565761185561175e565b5b92915050565b5f81905092915050565b50565b5f6118745f8361185c565b915061187f82611866565b5f82019050919050565b5f61189382611869565b9150819050919050565b7f5472616e73666572206661696c656400000000000000000000000000000000005f82015250565b5f6118d1600f836112c7565b91506118dc8261189d565b602082019050919050565b5f6020820190508181035f8301526118fe816118c5565b9050919050565b7f4475726174696f6e206d757374206265203e20300000000000000000000000005f82015250565b5f6119396014836112c7565b915061194482611905565b602082019050919050565b5f6020820190508181035f8301526119668161192d565b9050919050565b5f61197782610f5f565b91507fffffffffffffffffffffffffffffffffffffffffffffffffffffffffffffffff82036119a9576119a861175e565b5b600182019050919050565b7f4e487b71000000000000000000000000000000000000000000000000000000005f52602260045260245ffd5b5f60028204905060018216806119f857607f821691505b602082108103611a0b57611a0a6119b4565b5b50919050565b5f819050815f5260205f209050919050565b5f6020601f8301049050919050565b5f82821b905092915050565b5f60088302611a6d7fffffffffffffffffffffffffffffffffffffffffffffffffffffffffffffffff82611a32565b611a778683611a32565b95508019841693508086168417925050509392505050565b5f819050919050565b5f611ab2611aad611aa884610f5f565b611a8f565b610f5f565b9050919050565b5f819050919050565b611acb83611a98565b611adf611ad782611ab9565b848454611a3e565b825550505050565b5f90565b611af3611ae7565b611afe818484611ac2565b505050565b5b81811015611b2157611b165f82611aeb565b600181019050611b04565b5050565b601f821115611b6657611b3781611a11565b611b4084611a23565b81016020851015611b4f578190505b611b63611b5b85611a23565b830182611b03565b50505b505050565b5f82821c905092915050565b5f611b865f1984600802611b6b565b1980831691505092915050565b5f611b9e8383611b77565b9150826002028217905092915050565b611bb7826112bd565b67ffffffffffffffff811115611bd057611bcf611130565b5b611bda82546119e1565b611be5828285611b25565b5f60209050601f831160018114611c16575f8415611c04578287015190505b611c0e8582611b93565b865550611c75565b601f198416611c2486611a11565b5f5b82811015611c4b57848901518255600182019150602085019450602081019050611c26565b86831015611c685784890151611c64601f891682611b77565b8355505b6001600288020188555050505b505050505050565b5f6040820190508181035f830152611c9581856112ff565b9050611ca4602083018461102a565b9392505050565b7f4d75737420626574206d6f7265207468616e20300000000000000000000000005f82015250565b5f611cdf6014836112c7565b9150611cea82611cab565b602082019050919050565b5f6020820190508181035f830152611d0c81611cd3565b9050919050565b7f4d61726b657420646561646c696e6520686173207061737365640000000000005f82015250565b5f611d47601a836112c7565b9150611d5282611d13565b602082019050919050565b5f6020820190508181035f830152611d7481611d3b565b9050919050565b7f4d61726b657420616c7265616479207265736f6c7665640000000000000000005f82015250565b5f611daf6017836112c7565b9150611dba82611d7b565b602082019050919050565b5f6020820190508181035f830152611ddc81611da3565b9050919050565b5f604082019050611df65f8301856110f0565b611e03602083018461102a565b939250505056fea264697066735822122060fc38a2cf7f33ed15bbcea1d7bf56b36423fb2aee8ddb37384b1d162175b3ae64736f6c63430008140033",
  "linkReferences": {},
  "deployedLinkReferences": {},
  "immutableReferences": {},
  "inputSourceName": "project/contracts/HoverMarkets.sol",
  "buildInfoId": "solc-0_8_20-a4388c701224dca267bf0357961e55608418cc02"
}